S01300004C43445F70726F6A656B742E73726563E0
S113000039C04BC04AC049C048C047C046C045C0BB
S113001044C043C042C041C040C03FC03EC03DC0D8
S11300203CC03BC03AC039C038C037C036C035C008
S113003034C033C0001F000000001F00001F101058
S113004010101F00001F181818181F00001F1C1C78
S11300501C1C1F00001F1E1E1E1E1F00001F1F1F32
S11300601F1F1F0003070F1F0F070300181C1E1F6D
S11300701E1C180011241FBECFEFD4E0DEBFCDBF7D
S113008011E0A0E0B1E0E6EDF3E002C005900D92CE
S1130090AC30B107D9F746D19CC1B2CF85B9409AEB
S11300A0429A89EF90E00197F1F700C0000042986E
S11300B0409889EF90E00197F1F700C0000008959F
S11300C085B9429A89EF90E00197F1F700C00000EA
S11300D0429889EF90E00197F1F700C0000008957D
S11300E081E0EEDF089582E0EBDF08950F931F9324
S11300F0CF93DF93062F009749F0662339F0EC0184
S113010010E08991CBDF1F5F1013FBCFDF91CF91FC
S11301101F910F910895623031F0633031F06130F6
S113012029F4805C03C08C5E01C08C5A8068C8DFEF
S11301300895EF92FF920F931F93CF93DF938C0157
S1130140660F660F660F6064E62EC0E0D0E0F8012B
S1130150EC0FFD1FF4908C2F8E0DB2DF8F2D9EDFE0
S11301602196C830D10599F7DF91CF911F910F9156
S1130170FF90EF9008951F93CF93DF9385EA9EE05D
S11301800197F1F700C0000015B818B884B18FEFDB
S113019084B987B1876087B980E385B9429A89EFCA
S11301A090E00197F1F700C00000429889EF90E0D9
S11301B00197F1F700C0000080E385B9429A89EF06
S11301C090E00197F1F700C00000429889EF90E0B9
S11301D00197F1F700C0000080E385B9429A89EFE6
S11301E090E00197F1F700C00000429889EF90E099
S11301F00197F1F700C0000088E385B9429A89EFBE
S113020090E00197F1F700C00000429889EF90E078
S11302100197F1F700C000008CE085B9429A89EF9C
S113022090E00197F1F700C00000429881EE94E05D
S11302300197F1F700C00000C4E3D0E060E011E0F2
S1130240160FCE0176DF2896183011F0612FF7CF04
S1130250DF91CF911F9108958CE032DF0895CF9301
S1130260DF93CDB7DEB72B970FB6F894DEBF0FBE82
S1130270CDBF8BE0E0E0F1E0DE01119601900D923C
S11302808A95E1F778DF2FEF80E792E021508040F4
S11302909040E1F700C0000023DF2FEF80E792E0F9
S11302A0215080409040E1F700C000001CDF2FEF98
S11302B080E792E0215080409040E1F700C00000C8
S11302C06AE0CE01019612DF2FEF80E792E0215021
S11302D080409040E1F700C00000BEDF2B960FB6CF
S11302E0F894DEBF0FBECDBFDF91CF9108953B9848
S11302F0ECE7F0E0808188608083EAE7F0E08081C9
S1130300866880830895EAE7F0E0808180648083D2
S1130310808186FDFDCF809178002091790090E066
S1130320922B0895CF93DF93CDB7DEB728970FB6FE
S1130330F894DEBF0FBECDBF92DFD9DF8FEF8AB94D
S11303401BB88E010F5F1F4FDEDF4AE0B8010ED0ED
S113035061E080E0E0DEF80101900020E9F73197E8
S1130360BF01601B710BC801C1DEEECFBB274A3051
S113037031F4992322F4BDE2909581959F4F01C0F9
S1130380BB27FB015527AA27880F991FAA1FA4176B
S113039010F0A41B83955051B9F7A05DAA3308F05F
S11303A0A95DA193009779F7B111B1931192CB0193
S11303B000C0DC01FC01672F71917723E1F73297CC
S11303C004C07C916D9370836291AE17BF07C8F32C
S10903D00895F894FFCF2C
S10F03D64144432076616C75653A0000D8
S9030000FC
